:020000040800F2
:100000005009002089020008551B0008511B0008F8
:10001000531B0008CD080008D11F00080000000095
:10002000000000000000000000000000591B000854
:10003000CF08000800000000571B00085B1B0008E9
:10004000AD020008AD020008AD020008AD020008D4
:10005000AD020008AD020008AD020008AD020008C4
:10006000AD020008AD020008AD020008AD020008B4
:10007000AD020008AD020008AD020008AD020008A4
:10008000AD020008AD020008AD020008AD02000894
:10009000AD020008AD020008AD020008AD02000884
:1000A000AD020008AD020008AD020008AD02000874
:1000B000AD020008AD020008711B0008AD02000887
:1000C000AD020008AD020008AD020008AD02000854
:1000D000AD020008891F0008AD020008951F000846
:1000E000AD020008AD020008AD020008AD02000834
:1000F000AD020008AD020008AD020008AD02000824
:10010000AD020008AD020008AD020008AD02000813
:10011000AD020008AD020008AD020008AD02000803
:10012000AD020008AD020008AD020008AD020008F3
:10013000AD020008AD020008AD020008AD020008E3
:10014000AD020008AD020008AD020008AD020008D3
:10015000AD020008AD020008AD020008AD020008C3
:10016000AD020008AD020008AD020008AD020008B3
:10017000AD020008AD020008AD020008000000005A
:10018000AD020008AD02000800F002F800F06DF8C2
:100190000AA090E8000C82448344AAF10107DA45E2
:1001A00001D100F062F8AFF2090EBAE80F0013F0C7
:1001B000010F18BFFB1A43F001031847DCAB000026
:1001C000FCAB00000A444FF0000C10F8013B13F0A8
:1001D000070408BF10F8014B1D1108BF10F8015BA0
:1001E000641E05D010F8016B641E01F8016BF9D193
:1001F00013F0080F1EBF10F8014BAD1C0C1B09D1EA
:100200006D1E58BF01F801CBFAD505E014F8016B5B
:1002100001F8016B6D1EF9D59142D6D370470000ED
:100220000023002400250026103A28BF78C1FBD8FF
:10023000520728BF30C148BF0B607047642900F0E7
:100240003781752900F03481782900F06D816329A8
:1002500000F0E782732900F0EC82002070471FB5A0
:1002600007F04EFB1FBD10B510BD00F0FDFA1146A2
:10027000FFF7F5FF05F0E0FD00F01BFB03B4FFF70F
:10028000F2FF03BC02F011FA0C48016841F470015E
:1002900001600B4880470B480047FEE7FEE7FEE79A
:1002A000FEE7FEE7FEE7FEE7FEE7FEE7FEE700000B
:1002B00005480649044A064B7047000088ED00E0F7
:1002C000611B00088901000850050020500900202A
:1002D00050050020704753EA020C00F069802DE9B8
:1002E000F04B4FF00006002B1FBFB3FA83F503FA63
:1002F00005F424FA05F65E4012BF1643B2FA82F501
:1003000002FA05F4C5F120051EBF22FA05FC44EAF5
:100310000C04203556EA044C4FEA144418BF641C00
:100320004FF000084FF00009904271EB030C39D3F5
:10033000002919BFB1FA81F701FA07F6B0FA80F780
:1003400000FA07F6C7F120071EBF20FA07FC46EAAD
:100350000C062037B6FBF4FCA7EB0507103F07F0AF
:100360001F0BCBF120060CFA0BFB2CFA06F644BF50
:10037000B3460026202FA4BF5E464FF0000B5BEA79
:10038000060C08BF4FF0010B19EB0B09ABFB027C0D
:1003900048EB0608C01B06FB02CC0BFB03CC71EB41
:1003A0000C01C1E70B46024641464846BDE8F08BCA
:1003B00013B54FF000004FF00001AFF30080BDE82F
:1003C0001C4070470FB4044910B503AA029800F00E
:1003D00035FA10BC5DF814FB300000200FB41CB5DA
:1003E0000C0007AA009001D02044401E074B7B441C
:1003F00069460190069800F0EAF9002C03D069469E
:10040000002000F0F7F91CBC5DF814FB0D0400009F
:1004100070B5044685690068C10601D5302600E044
:100420002026C00707D070BDD4E90121304690478F
:10043000206A401C20626D1EF6D570BD70B5044662
:1004400085690078C00707D170BDD4E9012120205B
:100450009047206A401C20626D1EF6D570BD70B5B5
:100460000C460546012A05D02878800600D5EA69A1
:10047000002302E0012305E05B1C934202D2E05C12
:100480000028F9D1A869E618C01AA861286A18449A
:1004900028622846FFF7BCFF04E0D5E9012114F8E3
:1004A000010B9047B442F8D32846FFF7C7FF70BD51
:1004B0002DE9F0410646002410687529314616A53D
:1004C00010D0AFF30080002802DA404213A507E005
:1004D00031688A0701D512A502E0490704D511A5A4
:1004E000012401E0AFF3008000210A2206F1240775
:1004F00009E0B0FBF2FCB0FBF2F302FB1C00303071
:1005000078541846491C0028F3D123462A46304621
:10051000BDE8F04100F0FCB8000000002D00000034
:100520002B0000002000000070B504460D46214657
:100530001068AFF300802188090502D50F4A7A447C
:1005400002E00E4A7A440E32002104F1240305E051
:1005500000F00F060009965D5E54491C0028F7D193
:1005600020780023000704D5702D02D009B10223A2
:1005700011322046BDE8704000F0CAB860A3000008
:100580002DE9F05F894604464FF0000ADFF874B1A8
:10059000FB44C0F820A02046E1688847002874D0BA
:1005A000252806D0D4E901219047206A401C20620A
:1005B000F1E700265F462046E16888472028054687
:1005C00007DB312D05D2781910F8200C08B106434D
:1005D000F1E7B00701D526F00406C4F81CA00027F7
:1005E000C4F818A02A2D09D0284602F057F838B3CD
:1005F00004EB8708303DC8F8185019E059F8041B7F
:10060000204604EB87029161E1688847012F054687
:1006100018D1E069002820DA26F020061DE0D8F87D
:10062000180000EB800005EB40003038C8F81800D7
:100630002046E1688847054602F030F80028EED1F0
:10064000012F0AD02E2D08D12046E16888477F1C53
:100650000546022F46F02006C4DBA069002803DA15
:10066000404246F00106A061F00701D026F01006D6
:100670006C2D0BD0682D09D04C2D39D06A2D35D07A
:10068000742D35D07A2D33D016E038E0E1682F464E
:1006900020468847B842054609D16C2F26D04FF432
:1006A0008060E168064320468847054604E06C2FD9
:1006B0001AD04FF4807006430DB3A5F141001928FC
:1006C00002D8203546F400664A4629462046266070
:1006D0004E46FFF7B3FD80B101280BD0F61D26F082
:1006E000070000F1080956E74020E4E78020D8E73A
:1006F0000020D6E706F104094DE7284652E7206AB4
:10070000BDE8F09F36A30000704770477047704700
:100710002DE9F0470D4699469246044600F124081B
:100720000168880604D5E06921F01001216000E02D
:100730000120A84201DD471B00E00027A1697A19CA
:1007400002EB0900081AA0612078C00602D42046F6
:10075000FFF75EFE002608E0D4E901211AF8060042
:100760009047206A401C761C20624E45F4DB2078BE
:10077000C0060AD52046FFF74BFE06E0D4E901216A
:1007800030209047206A401C2062381EA7F10107E4
:10079000F4DC07E0D4E9012118F805009047206A4D
:1007A000401C2062281EA5F10105F3DC2046FFF75E
:1007B00045FE2078000602D50220BDE8F087012022
:1007C000FBE7000001694A1C02610878704700B528
:1007D0008FB0CDE901310021059105497944CDE97A
:1007E000031011466846FFF7CBFE0FB000BD0000B6
:1007F000E5FFFFFF0A6802F8010B0A607047D1E9C4
:1008000000239A4202D2531C0B601070704710B53F
:10081000436913B1AFF3008001E0FFF720FE012030
:1008200010BD127800F124010A7000224A700122E2
:10083000EDE711684FF0FF32E9E70000074B70B5B4
:100840000D467B44FFF7C3FF0446284600F008F836
:1008500010B14FF0FF3070BD204670BDB71E0000D4
:10086000007B00F080007047754600F02BF8AE4624
:1008700005006946534620F00700854618B020B5AC
:10088000FFF716FDBDE820404FF000064FF00007CF
:100890004FF000084FF0000B21F00701AC46ACE828
:1008A000C009ACE8C009ACE8C009ACE8C0098D4695
:1008B000704710B50446AFF300802046BDE81040F5
:1008C000FFF7DCBC00487047F0040020FEE77047EB
:1008D0002DE9FF410AADE0CD00240094019402947B
:1008E00003948DF80000FD208DF801008DF80210B2
:1008F000100A8DF803008DF804208DF80530280EBD
:100900008DF80600280C8DF80700280A8DF80800DD
:100910008DF809508DF80A608DF80B706B208DF8FA
:100920000C000D21684605F057FCBDE8FF811FB59E
:10093000002200920192029203926A468DF8000012
:100940000120112955D2DFE801F0090E1318541DBA
:100950005422272C3136543B454D40001F208DF842
:100960000100022045E020208DF80100022040E037
:1009700021208DF8010002203BE024208DF80100A9
:10098000022036E027208DF80100022031E03120DE
:100990008DF8010002202CE033208DF801000220A8
:1009A00027E035208DF80100022022E036208DF866
:1009B000010002201DE037208DF80100022018E020
:1009C0003A208DF80100022013E03B208DF8010051
:1009D00002200EE042208DF801006C208DF802000C
:1009E000032006E043208DF801007A208DF80200F4
:1009F00003206B211154401CC1B2684605F0ECFB8A
:100A00001FBD7FB5089D00240094019402940394B7
:100A10008DF80000F6208DF801008DF80210100A04
:100A20008DF803008DF804208DF805308DF8065000
:100A30006B208DF807000821684605F0CDFB7FBDCF
:100A400070B5B3F5804F05D06FF0704140F82210BB
:100A5000002070BD50F82230084C2340D1E90045F9
:100A600044EA05148D688E892D0245EA0645896998
:100A70002C430C431C4340F82240E9E70000F0CF30
:100A8000F0B50C6850F82450114A1540D1E9012303
:100A9000D1E903671A433E4332434E6932438E69BC
:100AA0003243CE6932430E6A32434E6A32438E6A13
:100AB0003243CE6A3243CE6B096B32430A432A4338
:100AC000082B01D142F0400240F824200020F0BD64
:100AD0008000F0FF70B5521C50F8223003F0404304
:100AE000D1E9004544EA05148D688E892D0245EA56
:100AF00006452C430D8A6D1E44EA05550C7D896917
:100B0000A41E45EA04640C431C4340F82240002024
:100B100070BD2DE9F0410446A76D00F05BF9054674
:100B200094F835000026022806D08020606584F8FD
:100B300034600120BDE8F0812068016821F01601D1
:100B400001602068416921F080014161206C08B991
:100B5000A06C20B12068016821F0080101602068C4
:100B6000016821F0010101600BE000F033F9401B46
:100B7000052806D9202034342062267003206070B6
:100B8000D8E720680068C007EFD134343F2094F8DC
:100B900028108840B8602670012060700020C9E7E6
:100BA00090F83510022903D080214165012070475B
:100BB000052180F835100068016821F0010101600D
:100BC0000020704780B201F077BD00002DE9F84F9A
:100BD0000022DFF89C914FF0010809F1040A032775
:100BE0004FF00F0C0AF1040B08FA02F50B682B40CA
:100BF000AB4272D10C7904F00304012C01D0022C19
:100C000015D18668540007FA04FE26EA0E06D1F8CC
:100C10000CE00EFA04FE4EEA060EC0F808E0446846
:100C2000AC430D79C5F300159540254345600C791B
:100C3000E443A40708D0C568540007FA04F6B54396
:100C40008E68A6402E43C6600C7904F00304022C83
:100C500011D1D40800EB8406356A5407E40E0CFA6F
:100C600004FE25EA0E05D1F810E00EFA04FE4EEA65
:100C7000050EC6F820E00568540007FA04F6B543EF
:100C80000E7906F00306A6402E4306604C68E40089
:100C900067D5384C256845F480452560246804F400
:100CA00080440094344C22F003052E19D6F80858DD
:100CB00094074FEA147E0CFA0EF4A5432F4CA04281
:100CC00001D1002424E02E4CA04201D101241FE0D8
:100CD0002C4CA04202D102241AE042E02A4CA0424D
:100CE00001D1032414E0294CA04201D104240FE0D7
:100CF000274CA04201D105240AE0264CA04201D194
:100D0000062405E0244CA04201D1072400E0082479
:100D100004FA0EF42C43C6F80848D9F800409C4366
:100D20004D68ED0300D51C43C9F80040DAF80040D7
:100D30009C434D68AD0300D51C43CAF80040DBF866
:100D400000409C434D68ED0200D51C43CBF80040A9
:100D5000074D0C352C689C434E68B60200D51C43E9
:100D60002C60521C102AFFF43FAFBDE8F88F000042
:100D7000003C014044380240003001400000024085
:100D80000004024000080240000C02400010024033
:100D90000014024000180240001C02400069084292
:100DA00001D00120704700207047426921EA020308
:100DB0000A4043EA024181617047002A01D0816103
:100DC000704709048161704701480068000C704752
:100DD000002004E0014880687047000034000020D3
:100DE0000248816802781144816070473400002015
:100DF00010B50948016841F400710160016841F4CF
:100E000080610160032000F059F80F2000F006F81F
:100E100000F026F8002010BD003C024070B50446EA
:100E20000D4D4FF47A712878B1FBF0F00B49096849
:100E3000B1FBF0F000F09AFB08B1012070BD102C5E
:100E400007D200222146501E00F018F86C600020E6
:100E500070BD012070BD00003400002000000020A3
:100E60007047002809DB00F01F0201219140400972
:100E7000800000F1E020C0F800117047F0B40D468A
:100E80000D4B1B68C3F30223C3F10704042C00D9E4
:100E90000424191D072901D2002300E0DB1E0126CE
:100EA00006FA04F1491E294099409E40761E1640DC
:100EB0003143F0BC01F0E2BB0CED00E000F00701B3
:100EC000054A10684FF6FF03184040EA0120034925
:100ED00008431060704700000CED00E00000FA05C8
:100EE0002DE9F04704460D46002C13D0DFF8289179
:100EF000D9F80000EFB200F00700A8420CD289F840
:100F00000070D9F8000000F00700A84204D00120CA
:100F1000BDE8F0870120FBE72068404E810712D52D
:100F2000400703D5306840F4E05030602078000777
:100F300003D5306840F4604030603068A16820F02C
:100F4000F000084330602078C00731D03349606832
:100F50000839012808D002280BD0032809D00968D5
:100F600089070BD40120D3E70968890306D401203F
:100F7000CEE70968890101D40120C9E7316821F071
:100F8000030101433160FFF725FF804641F2883AB3
:100F900007E0FFF71FFFA0EB0800504501D9032031
:100FA000B6E73068616800F00C00B0EB810FF0D15B
:100FB000D9F8000000F00700A84209D989F80070AC
:100FC000D9F8000000F00700A84201D001209FE7F7
:100FD0002078400705D53068E16820F4E0500843E8
:100FE00030602078000706D53068216920F4604021
:100FF00040EAC100306000F03FF83168084AC1F3B0
:101000000311515CC8400749086007480068FFF7B2
:1010100005FF00207CE70000003C02400838024049
:101020000A7900080000002038000020014800680C
:10103000704700000000002000B5FFF7F7FF0449EB
:101040000968044AC1F38221515CC84000BD000018
:10105000083802401A79000800B5FFF7E7FF044995
:101060000968044AC1F34231515CC84000BD000028
:10107000083802401A79000810B51748006810F0C7
:101080000C01164816D04310042912D0082911D19A
:10109000114C241F216801F03F02216849020AD542
:1010A0002068C0F38810A0FB03010023FFF713F9A9
:1010B00009E0184610BD21680023C1F38811A1FB87
:1010C0000001FFF708F92168C1F30141491C4900FB
:1010D000B0FBF1F010BD0000083802400024F4001D
:1010E0002DE9F84F0446002C13D02078DFF8A083B8
:1010F000C007A8F1040556D008F104000168C1F347
:10110000810101290CD00068C0F38100022803D0BE
:101110000DE00120BDE8F88FD8F80000400206D5A8
:10112000286880033FD5606870BB0120F2E76068E3
:10113000B0F5803F10D0B0F5A02F12D0286820F471
:1011400080302860286820F4802028606068E0B142
:10115000FFF740FE064614E0286840F4803028601F
:10116000F4E7286840F480202860286840F4803044
:101170002860EBE7FFF72EFE801B642801D90320CF
:10118000C8E728688003F5D50DE0FFF723FE064683
:1011900006E0FFF71FFE801B642801D90320B9E792
:1011A00028688003F5D42078BA4F80074FF00009F3
:1011B00048D5B748001D016811F00C0F08D0006831
:1011C000C0F38100022813D1D8F8000040020FD4E8
:1011D0002868800704D5E068012801D0012099E73C
:1011E0002868216920F0F80040EAC100286029E061
:1011F000E068B8B101203860FFF7ECFD064606E074
:10120000FFF7E8FD801B022801D9032082E7286848
:101210008007F5D52868216920F0F80040EAC10070
:1012200028600FE0C7F80090FFF7D4FD064606E0FF
:10123000FFF7D0FD801B022801D903206AE7286848
:101240008007F5D42078000729D5DFF844A292481A
:1012500061690AF1700A89B101210160FFF7BAFDE5
:10126000064606E0FFF7B6FD801B022801D90320E1
:1012700050E7DAF800008007F4D510E0C0F80090DD
:10128000FFF7A8FD064606E0FFF7A4FD801B022835
:1012900001D903203EE7DAF800008007F4D4207873
:1012A000400778D54FF0000A79483C300068C0000C
:1012B0000BD477483C30016841F0805101600068F0
:1012C00000F0805000904FF0010ADFF8D0B1DBF859
:1012D0000000C00514D4DBF8000040F48070CBF8A7
:1012E0000000FFF777FD064606E0FFF773FD801B61
:1012F000022801D903200DE7DBF80000C005F4D572
:10130000634EA0686C3601280FD0052812D03068D3
:1013100020F001003060306820F004003060A068E8
:10132000F8B1FFF757FD834617E0306840F0010041
:101330003060F4E7306840F004003060306840F01E
:1013400001003060EBE7FFF745FDA0EB0B0141F238
:101350008830814201D90320DCE630688007F2D56D
:1013600010E0FFF737FD834609E0FFF733FDA0EB00
:101370000B0141F28830814201D90320CAE630686E
:101380008007F2D4BAF1010F05D141483C30016821
:1013900021F080510160A069C0B33D49091D096871
:1013A0004FF0FF36C1F38101022946D0022805D053
:1013B000C7F86090FFF70EFD04463AE0C7F860906A
:1013C000FFF708FD814607E0FFF704FDA0EB0900E9
:1013D000022801D903209DE628688001F4D4D4E9CD
:1013E00007010843616AA26A890106EB520241EAD9
:1013F0000241084394F82C1040EA0160C8F800004C
:1014000001203866FFF7E6FC044607E03DE0FFF701
:10141000E1FC001B022801D903207BE6286880013B
:10142000F5D532E0FFF7D6FC001B022801D90320D6
:1014300070E628688001F5D427E0012823D0D8F889
:101440000000E26900F4800191421AD1226A00F0A2
:101450003F01914215D147F6C071626A0140B1EB7C
:10146000821F0ED1A26A00F4403106EB5202B1EBAA
:10147000024F06D194F82C1000F07060B0EB016FB1
:1014800003D0012046E6012044E6002042E60000A9
:101490000438024000004742800E4742007000407E
:1014A00070B504460E461546002C03D094F849004A
:1014B00010B107E0012070BD002084F848002046EC
:1014C00000F01AF804F108012068FFF7D9FA314654
:1014D000A2682068FFF7FEFAD4E901022946236BCF
:1014E000FFF7AEFAA168206850F8212042F001020F
:1014F00040F82120002070BD00B587B01848016871
:1015000041F001010160006800F001000190144801
:101510000838016841F008010160016801F0080124
:101520000191016841F010010160006800F01000B5
:1015300001904CF20370029002200390012104916B
:1015400005900C20069002A90648FFF73FFB4FF6D6
:101550008070029002A90448FFF738FB07B000BD75
:1015600038380240000C02400010024010B5401E06
:10157000B0F1807F01D3012010BD4FF0E024606105
:101580000F21601701F07AF80020A0610720206188
:10159000002010BD10B50446002C03D094F83D0087
:1015A00010B107E0012010BD002084F83C00204667
:1015B00000F015F8022084F83D00211D206800F09D
:1015C000F1FA01203D3460726070A070E07020710B
:1015D0006071A071E07120722070002010BD704712
:1015E00090F83D10012901D001207047022180F8B8
:1015F0003D100168CA6842F00102CA6000681449DF
:10160000884214D0B0F1804F11D0124988420ED0D8
:10161000114988420BD01149884208D010498842AC
:1016200005D01049884202D00F49884209D181680B
:1016300001F00701062908D0016841F001010160AD
:1016400003E0016841F001010160002070470000E3
:10165000000001400004004000080040000C004071
:1016600000040140004001400018004070477047EE
:10167000F8B5044622681068D168536900F00F0578
:10168000002D08D1860606D58E0604D52046BDE875
:10169000F84000F01ABB0026002D60D003F00105D1
:1016A00001F490772F435AD0C20705D0CA0503D55D
:1016B000226C42F001022264420705D5DA0703D00A
:1016C000226C42F002022264820705D5DA0703D0B9
:1016D000226C42F004022264020707D501F02002C6
:1016E0002A4303D0226C42F008022264226C002AB2
:1016F0002BD0800604D5880602D5204600F0E5FAF6
:1017000020684069C0F38010216C090700D408B339
:10171000204600F0B5FA20684169490616D54169AE
:1017200021F040014161A06B60B144490165A06BAB
:10173000FFF736FA002808D0A06B016D01B0BDE8B4
:10174000F04008472046FFF792FFF8BD2046FFF71C
:101750008EFFF8BD2046FFF78AFF2664F8BD236B95
:10176000012B58D1C30656D5CB0654D51068506806
:10177000009050694FF0200340062ED5A16B0868F9
:10178000406880B20028E9D0A58D8542E6D9E08581
:10179000C869B0F5807F18D0D06820F48070D06020
:1017A0002068416921F0010141612068416921F00F
:1017B0004001416184F83E3026632068C16821F011
:1017C0001001C160A06BFFF7A4F9A08DE18D401A54
:1017D00081B22046FFF74AFFF8BDA08DE18D401A87
:1017E00081B2E08D0028F7D00029F5D0D06820F430
:1017F0009070D0602068426922F00102426184F852
:101800003E3026632068C26822F01002C260204683
:10181000FFF72CFFF8BD020606D50A0604D52046C0
:10182000BDE8F84000F04FBB4006F3D54806F1D5BF
:101830002046BDE8F84000F03BBA0000711C0008EB
:1018400070B50446002C04D094F83D00002510B17A
:1018500006E0012070BD84F83C50204600F022F8DC
:10186000242084F83D002068C16821F40051C16043
:10187000204600F083FA2068016921F4904101615B
:101880002068416921F02A0141612068C16841F462
:101890000051C1602564202084F83D0084F83E009A
:1018A000002070BD30B587B000681E49884237D12E
:1018B0001D48016841F010010160006800F010004F
:1018C000019019481438016841F002010160016873
:1018D00001F002010191016841F00201016000681C
:1018E00000F00200019040200290022003900121AC
:1018F00004910590072406940C4D02A92846FFF791
:1019000065F980210291069402A92846FFF75EF945
:101910002520FFF7A6FA032211462520FFF7AEFA8D
:1019200007B030BD001001404438024000040240BE
:101930002DE9F84F04460E461546984694F83E00A9
:10194000202802D00220BDE8F88F0EB305B394F82A
:101950003C0001281ED0012084F83C004FF0000A12
:10196000C4F840A0222084F83E00C4F830A0FFF75D
:1019700031FA8146A585E585A0684FF48057B842C5
:1019800001D1206940B13546002684F83CA028E00A
:101990000120D8E70220D6E70025F6E74B460022D3
:1019A00020212046CDF8008000F0BCFA08B10320C9
:1019B000C9E725B1A068B8421BD038B108E020685B
:1019C0004068C0F3080026F8020B07E0206980B1E8
:1019D0002068406800F07F0028706D1CE08D401E7C
:1019E000E085E08D0028D9D1202084F83E00002039
:1019F000A9E7206840682870EFE790F83E30202B78
:101A000001D00220704759B152B190F83C30012BFF
:101A100008D0012380F83C300023036300F038BA7B
:101A2000012070470220704730B400681549884291
:101A30001DD1154A5088010419D41146440409786F
:101A40004FF0000307D50A2901D053800FE040F47E
:101A5000004050800BE00D2910D00C4DC0F30D0458
:101A60002955401C80B25080C72800D953800748B0
:101A7000012230BC0449C830FFF7BFBF40F48040AA
:101A80005080F4E7001001402C000020B802002034
:101A90002DE9F84304460E4615461F4694F83D00CE
:101AA000202802D00220BDE8F883C6B1BDB194F869
:101AB0003C00012815D0012084F83C004FF00009BB
:101AC000C4F84090212084F83D00FFF783F9804658
:101AD000A584E584A068B0F5805F04D005E001200E
:101AE000E1E70220DFE7206920B13546002684F8CF
:101AF0003C9013E00025FAE743460022802120466F
:101B0000009700F00FFA08B10320CCE79DB12168DF
:101B100015F8010B4860E08C401EE084E08C002842
:101B2000EAD14346002240212046009700F0FAF90E
:101B300040B10320B7E736F8020B2168C0F3080074
:101B40004860E8E7202084F83D000020ABE77047BC
:101B5000FEE7FEE7704770477047FFF741B90000A6
:101B60000248016841F470010160704788ED00E0AF
:101B700010B50A4C2068C068C043C00709D10848A6
:101B80000069804721680020486221686420C8629B
:101B9000E06021686FF00100086110BDA80400201A
:101BA000E40000202DE9F0410268264D264E274F23
:101BB000DFF89CC0274B4FF08048A84209D0404531
:101BC00007D0B04205D0B84203D0604501D098425A
:101BD00003D122F070044A682243A8421BD040453A
:101BE00019D0B04217D0B84215D0604513D09842F2
:101BF00011D0194CA0420ED0184CA0420BD0184C5A
:101C0000A04208D0174CA04205D0174CA04202D0E9
:101C1000164CA04203D122F44074CA6822434C6996
:101C200022F08002224302608A68C2620A688262ED
:101C3000A84201D0984201D10969016301214161A3
:101C4000BDE8F081000001400004004000080040B1
:101C5000000C0040000401400040014000440140ED
:101C60000048014000180040001C004000200040D7
:101C700010B5806B0021C185C184FFF7F8FC10BD51
:101C80000168CA6822F49072CA6001684A6922F049
:101C900001024A61016B012904D10168CA6822F07E
:101CA0001002CA60202180F83E10002101637047B5
:101CB00010B50168CA6822F04002CA60202180F88D
:101CC0003D10FFF744FF002010BD10B5044694F806
:101CD0003E00222801D0022010BDA1684FF480529E
:101CE000914201D1206920B1A06A91421DD051B129
:101CF0000BE0A06A21684968C1F308010180A06A6D
:101D0000801CA06209E0216979B12168496801F06D
:101D10007F010170A06A401CA062E08D401E00049B
:101D2000000CE08505D0002010BD216849680170D5
:101D3000F0E72068C16821F02001C1602068C16817
:101D400021F48071C1602068416921F00101416185
:101D5000202084F83E00206B012805D02046FFF7A4
:101D600063FE0020206310BD2068C16821F01001CF
:101D7000C160A18D2046FFF779FCF2E72DE9F04123
:101D8000044620680169E26821F440511143016171
:101D9000A1682069E269014360691043014320683A
:101DA000C26849F20C639A430A43C26020684169E1
:101DB000A26921F44071114341613349206888428E
:101DC00002D03249884202D1FFF746F901E0FFF71D
:101DD00033F9E1690023192764253226B1F5004F54
:101DE00028D061688B0F8A00A0FB0701FEF773FA09
:101DF0000146B0FBF5F07A42504301EB800006EB60
:101E00000010B0FBF5F000F0F002B1FBF5F002EBD2
:101E10000012B1FBF5F07B42584301EB800006EB6A
:101E20000010B0FBF5F0216800F00F00104488604E
:101E3000BDE8F08161684A18A0FB07015B41FEF72D
:101E40004AFA0146B0FBF5F00201B1FBF5F06FF084
:101E50001803584301EB800006EBC000B0FBF5F01F
:101E600000F0F80002EB4002B1FBF5F0584301EB43
:101E7000800006EBC000B0FBF5F0216800F0070021
:101E800010448860D4E700000010014000140140B5
:101E900081628285C28500210164222280F83E2071
:101EA00080F83C100168CA6842F48072CA60016818
:101EB0004A6942F001024A610068C16841F02001AC
:101EC000C1600020704790F83D10212901D0022008
:101ED00070478168B1F5805F01D1016961B1016A24
:101EE0004A1C0262026809785160C18C491E0904CB
:101EF000090CC1840AD013E0016A02680988C1F3A1
:101F000008015160016A891C0162EEE70168CA6834
:101F100022F08002CA600068C16841F04001C160DF
:101F2000002070472DE9F04104460E4617469846BA
:101F3000069D1DE0681C1BD02DB1FEF74BFFA0EBEA
:101F40000800A84214D92068C16821F4D071C1608A
:101F50002068416921F001014161202084F83D00A1
:101F600084F83E00002084F83C000320BDE8F081A6
:101F70002068006836EA000004D00020B842D9D0BA
:101F80000020F3E70120F9E70148FFF771BB0000EB
:101F90008003002008B50C4800680068C043800634
:101FA00011D44FF47A73012269460748FFF7C0FC49
:101FB00006490878402806D2034B9DF80020443398
:101FC0001A54401C087008BD24040020450000205D
:101FD000FEE7000010B51E219FED080B094800F038
:101FE000E5F90A2000F068FB06481E21BDE8104014
:101FF0009FED050B703000F0D9B900000000000023
:10200000000008C0D801002000000000000049C006
:1020100000B58BB003460AA2202103A8FEF7DEF923
:1020200003A91022CDE900211F20029064234FF460
:10203000FA7296211E2003F0FDFD0BB000BD0000DA
:10204000252D3230730000002DE9F047FEF7C2FE67
:102050000446DFF8A491694D99F80000A5F138060F
:10206000A5F17007A5F1A808072835D2DFE800F030
:1020700034043648798BBA0061A028633063386332
:10208000C8F830001E219FED5F0B5C48A83800F0B7
:102090008DF90A2000F010FB14219FED5C0B5748CE
:1020A000703800F083F90A2000F006FB0A219FED4A
:1020B000590B5248383800F079F90A2000F0FCFA40
:1020C0000A214E4800F0F0F90A2000F0F5FAC9F8AC
:1020D0000440022089F80000BDE8F087D9F8040028
:1020E00047F23051201A884202D3032089F80000B9
:1020F0004AA030633863C8F8300041A02863EBE79A
:102100000C219FED480B3D48A83800F04FF90A20FC
:1021100000F0D2FA08219FED450B3848703800F0E6
:1021200045F90A2000F0C8FA05219FED420B33481B
:10213000383800F03BF90A2000F0BEFA03212F489E
:1021400000F0B2F90A2000F0B7FAC9F80440042000
:1021500089F800002AA0286330633863C8F830008B
:10216000BAE7D9F804004EF66021201A884202D35B
:10217000052089F8000029A030633863C8F83000D2
:102180001FA02863A8E71D4828219FED2C0BA83825
:1021900000F00CF90A2000F08FFA18480F219FED8B
:1021A000290B703800F002F90A2000F085FA134874
:1021B00003219FED260B383800F0F8F80A2000F0D4
:1021C0007BFA00210D4800F06FF90A2000F074FA44
:1021D0000BA0286330633863C8F83000062089F804
:1021E000000079E7002089F800000CA02863306324
:1021F0003863C8F830006FE7040000208002002038
:1022000052554E000000000000002E40000000006B
:1022100000003E40000000000000444053544F5076
:10222000000000000000000000001440000000005A
:102230000000244000000000000039C00000000041
:10224000000034C000000000000044C00000000096
:1022500000002EC070B504462DED028B82B001A99E
:10226000204603F091FF9DF80400002876D008284E
:1022700001D9082001902078617801280DD002282A
:102280000ED003280FD0042868D1434D35290DD036
:10229000362919D03A294ED144E03F4DA83DF5E703
:1022A0003D4D703DF2E73C4D383DEFE79DF80400B1
:1022B000062840D3A1782079E27840EA022001295B
:1022C00000D14042A86136E09DF80400082832D3CE
:1022D000A078A179E27841EA02662179627909045D
:1022E00041EA02210E43012800D17642EE61E878EE
:1022F00005F0B8F99FED291B53EC112B05F002FAFC
:1023000041EC180B304605F096F99FED261B53EC77
:10231000112B05F0F7F953EC182B04F0D7FFC5E9A2
:10232000080108E09DF80400042804D3A078C0F355
:10233000400085F828001E260024D22504EBC400A6
:1023400000EB041005EB8002641C012C07D0022C6A
:102350000BD0032C0FD0042C17D112E018E00E483C
:102360003146A83800F0E4F80FE00B4831467038E9
:1023700000F0DEF809E008483146383800F0D8F8B7
:1023800003E03146044800F0D3F8E4B2042CD5D37E
:1023900002B0BDEC028B70BD800200200000000086
:1023A0000000A9400000000000807640F0B504461F
:1023B0002DED068B83B0B0EE408AF0EE608A0D46BC
:1023C00084ED048BA560002D01D02F4800E02F483C
:1023D00020639FED2F0B51EC180B53EC102B05F0E5
:1023E00055F90CD2607840B10020A07051EC180B68
:1023F00004F054FF41EC180B03E00120F5E760788E
:10240000A070E6784FF4486016FB00F005F02AF95A
:1024100053EC182B05F076F99FED1FAB53EC1A2BFC
:1024200004F054FF05F0DAF80746E08805F01AF9E1
:1024300041EC190B304605F015F953EC182B05F05B
:1024400061F99FED171B53EC112B05F05BF953EC71
:102450001A2B04F03BFF53EC192B04F037FF05F067
:102460008DF8E06205B1E5800020CDE900700290B2
:102470002379E288A1782078FEF72AFA03B038465B
:10248000BDEC068BF0BD0000E4A80008E8A8000839
:102490000000000000000000000000000080764006
:1024A00000000000004CED4008B58160002901D01B
:1024B0000F4900E00F49016381680BDAC1F10001A7
:1024C000C180417819B14FF00001817005E04FF0F3
:1024D0000101FAE7C180427882704FF0000100915B
:1024E0000379C28881780078FEF78BFA08BD000076
:1024F000DBA80008DFA8000810B5029C017042703C
:10250000C3700471002181609FED060B80ED040B08
:102510008161C16180ED080B80F8281003490163D7
:1025200010BD00000000000000000000EDA8000841
:102530002DE9F04F8FB004460E4615462378464AE3
:10254000202107A8FDF74AFF4FF01F080DF11C09D5
:10255000CDE901981027A9B2B0B23B463C220097C2
:1025600003F068FB06F1500A236B187852282AD032
:102570004FF4784B394A202107A8FDF72FFF8DE84B
:10258000800AA9B21FFA8AF010233C2203F052FB02
:1025900014353348CDE90108A9B20097B0B2102331
:1025A0003C2203F047FB06F1460AA06800280FDD35
:1025B000617859B12B4B00902B4A4FF00A0104A8C7
:1025C000FDF70CFF19E04FF4FC6BD3E7274BF2E764
:1025D0000EDA617851B1254BC0F100000090224A1B
:1025E0004FF00A0104A8FDF7F9FE06E01D4BF3E7E2
:1025F0001F4A0A2104A8FDF7F1FE04A8CDE901084D
:10260000A9B200971FFA8AF01023462203F012FBAA
:1026100014351848CDE90108A9B20097B0B21023CB
:10262000642203F007FB6E3694ED040B51EC100BA3
:1026300004F0A4FF0346104A202107A8FDF7CEFEB0
:10264000CDE90198A9B2B0B210235022009703F04F
:10265000F1FA0FB0BDE8F08FF2A80008F9A8000861
:10266000FEA8000809A900080EA9000805A900088D
:1026700017A9000820A9000828A900080907090EC1
:10268000002804DB00F1E02080F80014704700F01F
:102690000F0000F1E02080F8141D704730380A2840
:1026A00001D201207047002070477047014908603F
:1026B00070470000280000204FF47A71484300F072
:1026C00001B8000070B500214FF0E0256C690A4A9E
:1026D00012685043AB69AA699A42FCD003D2A3EBBB
:1026E0000203194403E0A4EB0206334419441346E1
:1026F0008142F0D370BD00002800002003490A6821
:102700005206FCD5C2B24A6070470000001001407A
:10271000F0B587B000241C48016841F01001016049
:10272000016801F010010191016841F010010160A0
:10273000016801F010010191016841F01001016090
:10274000006800F01000019004200290039401251D
:102750000495022605960D4F02A93846FEF736FA73
:102760000820029003940495059602A93846FEF7C6
:102770002DFA1020029003940495059602A938467C
:10278000FEF724FA07B0F0BD3038024000100240D6
:102790002DE9F04100240126224D002800D02E70A2
:1027A0002878214F70B104213846FEF7F7FA80B13E
:1027B00008213846FEF7F2FA58B110213846FEF7E4
:1027C000EDFA30B104213846FEF7E8FA012818D0B6
:1027D00024E00A20FFF770FF00202870042138460B
:1027E000FEF7DCFA00B9012408213846FEF7D6FAD4
:1027F00000B9022410213846FEF7D0FA70B903243C
:102800000CE008213846FEF7C9FA012806D110214C
:102810003846FEF7C3FA012800D12E702046BDE8E5
:10282000F0810000440000200010024070B5054611
:102830000024084908884E8846430021084603F0D2
:10284000C3F803F0B3FA044901E00D80641CB442FC
:10285000FBD370BD140400200008006C2DE9F04F7C
:102860003A4B987119462C272B252A2689884FF434
:1028700030584FF4285941F6631A4FF0F00B45F2E7
:10288000105E4FF448744FF4A07C4FF4F0720028AF
:102890000ED0A3F800C0A3F802B0714535D1A3F85B
:1028A0000880A3F80A90280298811C805A8035E09D
:1028B000A3F800B0A3F802C0714509D1A3F80880BD
:1028C000A3F80A904FF42C5098811A805C800AE09B
:1028D000514505D11F815D819E811A805C8002E097
:1028E0001F815E819D81A1F5A640103803D0A1F51E
:1028F000EE40963802D1A3F800C05A80A1F51840E6
:1029000006381DD11A805C801AE051450FD0A1F520
:10291000184006380BD01F815E819D81A1F5A6402D
:1029200010380AD0A1F5EE40963806D008E01F8195
:102930005E819D811C805A80F0E71A80A3F802C056
:10294000BDE8F04F002002F065BF00001404002035
:102950002DE9FF4F82B00746884600241546032024
:10296000A0EB420653E0A8EB050081B207EB040A96
:1029700001901FFA8AF0059A00F09CF8A8EB040079
:10298000009081B207EB05091FFA89F0059A00F063
:1029900091F808EB040B1FFA8BF11FFA89F0059AE6
:1029A00000F088F808EB05091FFA89F11FFA8AF090
:1029B000059A00F07FF81FFA89F1A7EB04091FFAC6
:1029C00089F0059A00F076F8A7EB050A1FFA8BF15B
:1029D0001FFA8AF0059A00F06DF80198059A81B205
:1029E0001FFA89F000F066F80098059A81B21FFA84
:1029F0008AF000F05FF8641C002E03DA06EB840610
:102A0000B61D04E0601B06EB80060A366D1EAC4264
:102A1000A9DD06B0BDE8F08F2DE9FE4F00250026A8
:102A2000171AA3EB010881468A46681E002F03DDB2
:102A30004FF00101019107E003D14FF00001019136
:102A400002E00190C7F10007B8F1000F03DD4FF07D
:102A50000100009007E003D14FF00000009002E079
:102A60000090C8F10008474501DD3C4600E04446BF
:102A70004FF0000B601C029016E01FFA8AF11FFA5B
:102A800089F00C9A00F016F83D444644A54202DD58
:102A90002D1B01988144A64202DD361B009882441A
:102AA0000BF1010B1FFA8BFB02988345E5DDBDE8B6
:102AB000FE8F000010B5144602F086FF03F076F991
:102AC0000148048010BD00000008006C2DE9F841A9
:102AD0008046079C0E4615461F4633462A46314619
:102AE00040460094FFF798FF3B4642463146404639
:102AF0000094FFF791FF3B462A4639464046009432
:102B0000FFF78AFF3B462A46314628460094FFF7E6
:102B100083FFBDE8F88110B5CF2003F03BF900201A
:102B200003F02CF9C12003F029F9302003F026F935
:102B3000ED2003F02FF9642003F020F9032003F0C7
:102B40001DF9122003F01AF9812003F017F9E8208B
:102B500003F020F9852003F011F9102003F00EF99D
:102B60007A2003F00BF9CB2003F014F9392003F09D
:102B700005F92C2003F002F9002003F0FFF83420BF
:102B800003F0FCF8022003F0F9F8F72003F002F953
:102B9000202003F0F3F8EA2003F0FCF8002003F013
:102BA000EDF8002003F0EAF8C02003F0F3F81B2052
:102BB00003F0E4F8C12003F0EDF8012003F0DEF8A3
:102BC000C52003F0E7F8302003F0D8F8302003F0F8
:102BD000D5F8C72003F0DEF8B72003F0CFF8362091
:102BE00003F0D8F8482003F0C9F83A2003F0D2F8EF
:102BF000552003F0C3F8B12003F0CCF8002003F017
:102C0000BDF81A2003F0BAF8B62003F0C3F80A2082
:102C100003F0B4F8A22003F0B1F8F22003F0BAF800
:102C2000002003F0ABF8262003F0B4F8012003F0F5
:102C3000A5F8E02003F0AEF80F2003F09FF82A205B
:102C400003F09CF8282003F099F8082003F096F888
:102C50000E2003F093F8082003F090F8542003F0BE
:102C60008DF8A92003F08AF8432003F087F80A20A2
:102C700003F084F80F2003F081F8002003F07EF8C1
:102C8000002003F07BF8002003F078F8002003F028
:102C900075F8E12003F07EF8002003F06FF81520AE
:102CA00003F06CF8172003F069F8072003F066F8CA
:102CB000112003F063F8062003F060F82B2003F0E6
:102CC0005DF8562003F05AF83C2003F057F8052031
:102CD00003F054F8102003F051F80F2003F04EF8E1
:102CE0003F2003F04BF83F2003F048F80F2003F09B
:102CF00045F82B2003F04EF8002003F03FF80020A9
:102D000003F03CF8012003F039F83F2003F036F8D7
:102D10002A2003F03FF8002003F030F8002003F0F1
:102D20002DF8002003F02AF8EF2003F027F81120F7
:102D300003F030F87820FFF7BFFCBDE810402920F1
:102D400003F028B810B5FF2003F024F8FF2003F0AB
:102D500015F8982003F012F8062003F00FF8BC20B5
:102D600003F018F8012003F009F80F2003F006F82B
:102D7000612003F003F8FF2003F000F8012002F0C7
:102D8000FDFF012002F0FAFF0B2002F0F7FF1020F8
:102D900002F0F4FF372002F0F1FF632002F0EEFFB3
:102DA000FF2002F0EBFFFF2002F0E8FF012002F01D
:102DB000E5FF012002F0E2FF002002F0DFFF00202B
:102DC00002F0DCFFFF2002F0D9FF522002F0D6FF14
:102DD000012002F0D3FF002002F0D0FF402002F0DB
:102DE000CDFFBD2002F0D6FF012002F0C7FF232057
:102DF00002F0C4FF452002F0C1FF672002F0BEFFD1
:102E0000012002F0BBFF232002F0B8FF452002F0B2
:102E1000B5FF672002F0B2FFBE2002F0BBFF00202A
:102E200002F0ACFF012002F0A9FFAB2002F0A6FFE8
:102E3000602002F0A3FF222002F0A0FF222002F077
:102E40009DFF222002F09AFF222002F097FF22200D
:102E500002F094FFC72002F09DFF362002F08EFFA3
:102E6000ED2002F097FF7F2002F088FF0F2002F094
:102E700085FFC02002F08EFF0F2002F07FFF0B20A5
:102E800002F07CFF0A2002F079FFFC2002F082FFB2
:102E9000082002F073FFDF2002F07CFF002002F028
:102EA0006DFF002002F06AFF002002F067FF0020A3
:102EB00002F064FF002002F061FF202002F05EFFBC
:102EC000F32002F067FF742002F058FFB42002F0F4
:102ED00061FF002002F052FF002002F04FFF0020AF
:102EE00002F04CFFF72002F055FF822002F046FF6F
:102EF000B12002F04FFF002002F040FF132002F04B
:102F00003DFF132002F03AFFF22002F043FF802041
:102F100002F034FF042002F031FF402002F02EFFC7
:102F2000282002F02BFFC12002F034FF172002F00E
:102F300025FF882002F022FF882002F01FFF2020BA
:102F400002F01CFFE02002F025FF002002F016FF37
:102F50000A2002F013FF122002F010FF102002F0EE
:102F60000DFF0E2002F00AFF202002F007FFCC2008
:102F700002F004FF072002F001FF062002F0FEFE2F
:102F80000B2002F0FBFE0E2002F0F8FE0F2002F0F4
:102F9000F5FE0D2002F0F2FE152002F0EFFE1020EB
:102FA00002F0ECFE002002F0E9FEE12002F0F2FE69
:102FB000002002F0E3FE0B2002F0E0FE132002F0FE
:102FC000DDFE0D2002F0DAFE0E2002F0D7FE1B20FF
:102FD00002F0D4FE712002F0D1FE062002F0CEFEF7
:102FE000062002F0CBFE0A2002F0C8FE0F2002F0FD
:102FF000C5FE0E2002F0C2FE0F2002F0BFFE15201B
:1030000002F0BCFE0C2002F0B9FE002002F0B6FE79
:103010002A2002F0BFFE002002F0B0FE002002F0E5
:10302000ADFE012002F0AAFEDF2002F0A7FE2B2059
:1030300002F0B0FE002002F0A1FE002002F09EFE91
:10304000032002F09BFE1F2002F098FE3A2002F0BF
:10305000A1FE552002F092FE362002F09BFE0020D9
:1030600002F08CFE112002F095FE7820FFF724FB81
:10307000292002F08FFE1420FFF71EFBBDE8104050
:103080002C2002F087BE10B5ED2002F083FE012057
:1030900002F074FEFE2002F071FEEE2002F07AFED5
:1030A000DE2002F06BFE212002F068FEF12002F02B
:1030B00071FE012002F062FEDF2002F06BFE1020A4
:1030C00002F05CFEC42002F065FE8F2002F056FE86
:1030D000C62002F05FFE002002F050FEE22002F067
:1030E0004DFEE22002F04AFEE22002F047FEBF2041
:1030F00002F050FEAA2002F041FEB02002F04AFE8B
:103100000D2002F03BFE002002F038FE0D2002F000
:1031100035FE002002F032FE112002F02FFE0020CA
:1031200002F02CFE192002F029FE002002F026FEFB
:10313000212002F023FE002002F020FE2D2002F0CC
:103140001DFE002002F01AFE3D2002F017FE0020B6
:1031500002F014FE5D2002F011FE002002F00EFECF
:103160005D2002F00BFE002002F008FEB12002F00C
:1031700011FE802002F002FE002002F0FFFD8B20F5
:1031800002F0FCFD002002F0F9FD962002F0F6FDB1
:10319000002002F0F3FDB22002F0FCFD002002F05E
:1031A000EDFD002002F0EAFD022002F0E7FD002024
:1031B00002F0E4FD032002F0E1FD002002F0DEFD5C
:1031C000B32002F0E7FD002002F0D8FD002002F05D
:1031D000D5FD002002F0D2FD002002F0CFFD00203E
:1031E00002F0CCFD002002F0C9FD002002F0C6FD77
:1031F000002002F0C3FD002002F0C0FD002002F01C
:10320000BDFD002002F0BAFD002002F0B7FD002055
:1032100002F0B4FD002002F0B1FD002002F0AEFD8E
:10322000002002F0ABFD002002F0A8FD002002F01B
:10323000A5FD002002F0A2FD002002F09FFD00206D
:1032400002F09CFD002002F099FD002002F096FDA6
:10325000002002F093FDB42002F09CFD8B2002F0D0
:103260008DFD002002F08AFD962002F087FD0020EF
:1032700002F084FDA12002F081FD002002F07EFD1D
:10328000B52002F087FD022002F078FD002002F058
:1032900075FD032002F072FD002002F06FFD042096
:1032A00002F06CFD002002F069FDB62002F072FD14
:1032B000002002F063FD002002F060FDB72002F064
:1032C00069FD002002F05AFD002002F057FD3F206A
:1032D00002F054FD002002F051FD5E2002F04EFD90
:1032E000002002F04BFD642002F048FD002002F0B7
:1032F00045FD8C2002F042FD002002F03FFDAC2095
:1033000002F03CFD002002F039FDDC2002F036FD29
:10331000002002F033FD702002F030FD002002F0AA
:103320002DFD902002F02AFD002002F027FDEB2069
:1033300002F024FD002002F021FDDC2002F01EFD41
:10334000002002F01BFDB82002F024FD002002F056
:1033500015FD002002F012FD002002F00FFD0020FC
:1033600002F00CFD002002F009FD002002F006FD35
:10337000002002F003FD002002F000FDBA2002F060
:1033800009FD242002F0FAFC002002F0F7FC0020E6
:1033900002F0F4FC002002F0F1FCC12002F0FAFC83
:1033A000202002F0EBFC002002F0E8FC542002F0A8
:1033B000E5FC002002F0E2FCFF2002F0DFFC002030
:1033C00002F0DCFCC22002F0E5FC0A2002F0D6FC90
:1033D000002002F0D3FC042002F0D0FC002002F018
:1033E000CDFCC32002F0D6FC3C2002F0C7FC00203C
:1033F00002F0C4FC3A2002F0C1FC002002F0BEFC46
:10340000392002F0BBFC002002F0B8FC372002F0AB
:10341000B5FC002002F0B2FC3C2002F0AFFC002022
:1034200002F0ACFC362002F0A9FC002002F0A6FC61
:10343000322002F0A3FC002002F0A0FC2F2002F0BA
:103440009DFC002002F09AFC2C2002F097FC00204A
:1034500002F094FC292002F091FC002002F08EFC86
:10346000262002F08BFC002002F088FC242002F0D1
:1034700085FC002002F082FC242002F07FFC00206A
:1034800002F07CFC232002F079FC002002F076FCA4
:103490003C2002F073FC002002F070FC362002F0A9
:1034A0006DFC002002F06AFC322002F067FC002074
:1034B00002F064FC2F2002F061FC002002F05EFCB0
:1034C0002C2002F05BFC002002F058FC292002F0C6
:1034D00055FC002002F052FC262002F04FFC002098
:1034E00002F04CFC242002F049FC002002F046FCD3
:1034F000242002F043FC002002F040FC232002F0D4
:103500003DFC002002F03AFCC42002F043FC6220A3
:1035100002F034FC002002F031FC052002F02EFC09
:10352000002002F02BFC842002F028FC002002F096
:1035300025FCF02002F022FC002002F01FFC1820E5
:1035400002F01CFC002002F019FCA42002F016FC82
:10355000002002F013FC182002F010FC002002F002
:103560000DFC502002F00AFC002002F007FC0C20A9
:1035700002F004FC002002F001FC172002F0FEFB28
:10358000002002F0FBFB952002F0F8FB002002F087
:10359000F5FBF32002F0F2FB002002F0EFFBE62047
:1035A00002F0ECFB002002F0E9FBC52002F0F2FB88
:1035B000322002F0E3FB002002F0E0FB442002F0A6
:1035C000DDFB002002F0DAFB652002F0D7FB0020D3
:1035D00002F0D4FB762002F0D1FB002002F0CEFBFB
:1035E000882002F0CBFB002002F0C8FBC62002F0CE
:1035F000D1FB202002F0C2FB002002F0BFFB17200D
:1036000002F0BCFB002002F0B9FB012002F0B6FB87
:10361000002002F0B3FBC72002F0BCFB002002F048
:10362000ADFB002002F0AAFB002002F0A7FB002067
:1036300002F0A4FBC82002F0ADFB002002F09EFBCC
:10364000002002F09BFB002002F098FB002002F01B
:1036500095FBC92002F09EFB002002F08FFB0020AA
:1036600002F08CFB002002F089FB002002F086FBB8
:10367000002002F083FB002002F080FB002002F01B
:103680007DFB002002F07AFB002002F077FB002097
:1036900002F074FB002002F071FB002002F06EFBD0
:1036A000002002F06BFB002002F068FB002002F01B
:1036B00065FB002002F062FBE02002F06BFB1620AD
:1036C00002F05CFB002002F059FB1C2002F056FBCC
:1036D000002002F053FB212002F050FB002002F0FA
:1036E0004DFB362002F04AFB002002F047FB46204B
:1036F00002F044FB002002F041FB522002F03EFBAE
:10370000002002F03BFB642002F038FB002002F0B6
:1037100035FB7A2002F032FB002002F02FFB8B20D9
:1037200002F02CFB002002F029FB992002F026FB7E
:10373000002002F023FBA82002F020FB002002F072
:103740001DFBB92002F01AFB002002F017FBC42079
:1037500002F014FB002002F011FBCA2002F00EFB65
:10376000002002F00BFBD22002F008FB002002F048
:1037700005FBD92002F002FB002002F0FFFAE02056
:1037800002F0FCFA002002F0F9FAF32002F0F6FA57
:10379000002002F0F3FAE12002F0FCFA162002F019
:1037A000EDFA002002F0EAFA1C2002F0E7FA00200D
:1037B00002F0E4FA222002F0E1FA002002F0DEFA40
:1037C000362002F0DBFA002002F0D8FA452002F0A1
:1037D000D5FA002002F0D2FA522002F0CFFA0020EF
:1037E00002F0CCFA642002F0C9FA002002F0C6FA16
:1037F0007A2002F0C3FA002002F0C0FA8B2002F017
:10380000BDFA002002F0BAFA992002F0B7FA0020BF
:1038100002F0B4FAA82002F0B1FA002002F0AEFAE9
:10382000B92002F0ABFA002002F0A8FAC42002F09E
:10383000A5FA002002F0A2FACA2002F09FFA0020A6
:1038400002F09CFAD22002F099FA002002F096FAD7
:10385000D82002F093FA002002F090FAE02002F063
:103860008DFA002002F08AFAF32002F087FA002095
:1038700002F084FAE22002F08DFA052002F07EFACE
:10388000002002F07BFA0B2002F078FA002002F010
:1038900075FA1B2002F072FA002002F06FFA342051
:1038A00002F06CFA002002F069FA442002F066FA95
:1038B000002002F063FA4F2002F060FA002002F0CC
:1038C0005DFA612002F05AFA002002F057FA7920DE
:1038D00002F054FA002002F051FA882002F04EFA69
:1038E000002002F04BFA972002F048FA002002F084
:1038F00045FAA62002F042FA002002F03FFAB72073
:1039000002F03CFA002002F039FAC22002F036FA46
:10391000002002F033FAC72002F030FA002002F053
:103920002DFAD12002F02AFA002002F027FAD62040
:1039300002F024FA002002F021FADD2002F01EFA43
:10394000002002F01BFAF32002F018FA002002F027
:1039500015FAE32002F01EFA052002F00FFA00200B
:1039600002F00CFA0A2002F009FA002002F006FA2E
:103970001C2002F003FA002002F000FA332002F0CB
:10398000FDF9002002F0FAF9442002F0F7F90020D6
:1039900002F0F4F9502002F0F1F9002002F0EEF903
:1039A000622002F0EBF9002002F0E8F9782002F042
:1039B000E5F9002002F0E2F9882002F0DFF90020AA
:1039C00002F0DCF9972002F0D9F9002002F0D6F9D4
:1039D000A62002F0D3F9002002F0D0F9B72002F0BF
:1039E000CDF9002002F0CAF9C22002F0C7F9002088
:1039F00002F0C4F9C72002F0C1F9002002F0BEF9BC
:103A0000D12002F0BBF9002002F0B8F9D52002F075
:103A1000B5F9002002F0B2F9DD2002F0AFF9002084
:103A200002F0ACF9F32002F0A9F9002002F0A6F9A7
:103A3000E42002F0AFF9012002F0A0F9002002F02A
:103A40009DF9012002F09AF9002002F097F9022076
:103A500002F094F9002002F091F92A2002F08EF988
:103A6000002002F08BF93C2002F088F9002002F0DF
:103A700085F94B2002F082F9002002F07FF95D20E9
:103A800002F07CF9002002F079F9742002F076F956
:103A9000002002F073F9842002F070F9002002F097
:103AA0006DF9932002F06AF9002002F067F9A22074
:103AB00002F064F9002002F061F9B32002F05EF92F
:103AC000002002F05BF9BE2002F058F9002002F05D
:103AD00055F9C42002F052F9002002F04FF9CD2030
:103AE00002F04CF9002002F049F9D32002F046F927
:103AF000002002F043F9DD2002F040F9002002F03E
:103B00003DF9F32002F03AF9002002F037F9E52000
:103B100002F040F9002002F031F9002002F02EF905
:103B2000002002F02BF9002002F028F9022002F018
:103B300025F9002002F022F9292002F01FF90020C7
:103B400002F01CF93C2002F019F9002002F016F9ED
:103B50004B2002F013F9002002F010F95D2002F072
:103B60000DF9002002F00AF9742002F007F9002094
:103B700002F004F9842002F001F9002002F0FEF8BE
:103B8000932002F0FBF8002002F0F8F8A22002F0E7
:103B9000F5F8002002F0F2F8B32002F0EFF8002070
:103BA00002F0ECF8BE2002F0E9F8002002F0E6F89E
:103BB000C42002F0E3F8002002F0E0F8CD2002F08B
:103BC000DDF8002002F0DAF8D32002F0D7F8002068
:103BD00002F0D4F8DC2002F0D1F8002002F0CEF898
:103BE000F32002F0CBF8002002F0C8F8E62002F043
:103BF000D1F8112002F0C2F8002002F0BFF8342002
:103C000002F0BCF8002002F0B9F8562002F0B6F835
:103C1000002002F0B3F8762002F0B0F8002002F0A5
:103C2000ADF8772002F0AAF8002002F0A7F866208D
:103C300002F0A4F8002002F0A1F8882002F09EF81B
:103C4000002002F09BF8992002F098F8002002F082
:103C500095F8BB2002F092F8002002F08FF899202E
:103C600002F08CF8002002F089F8662002F086F855
:103C7000002002F083F8552002F080F8002002F0C6
:103C80007DF8552002F07AF8002002F077F8452000
:103C900002F074F8002002F071F8432002F06EF890
:103CA000002002F06BF8442002F068F8002002F0D7
:103CB00065F8E72002F06EF8322002F05FF800208D
:103CC00002F05CF8552002F059F8002002F056F896
:103CD000762002F053F8002002F050F8662002F03F
:103CE0004DF8002002F04AF8672002F047F8002063
:103CF00002F044F8672002F041F8002002F03EF89C
:103D0000872002F03BF8002002F038F8992002F0FA
:103D100035F8002002F032F8BB2002F02FF8002026
:103D200002F02CF8992002F029F8002002F026F881
:103D3000772002F023F8002002F020F8442002F05F
:103D40001DF8002002F01AF8562002F017F80020A3
:103D500002F014F8232002F011F8002002F00EF80F
:103D6000332002F00BF8002002F008F8452002F0A2
:103D700005F8002002F002F8E82002F00BF800201D
:103D800001F0FCFF002001F0F9FF992001F0F6FF9F
:103D9000002001F0F3FF872001F0F0FF002001F088
:103DA000EDFF882001F0EAFF002001F0E7FF772017
:103DB00001F0E4FF002001F0E1FF662001F0DEFFEA
:103DC000002001F0DBFF882001F0D8FF002001F087
:103DD000D5FFAA2001F0D2FF002001F0CFFFBB20C9
:103DE00001F0CCFF002001F0C9FF992001F0C6FFCF
:103DF000002001F0C3FF662001F0C0FF002001F0A9
:103E0000BDFF552001F0BAFF002001F0B7FF55209B
:103E100001F0B4FF002001F0B1FF442001F0AEFF3B
:103E2000002001F0ABFF442001F0A8FF002001F0CA
:103E3000A5FF552001F0A2FF002001F09FFFE9201F
:103E400001F0A8FFAA2001F099FF002001F096FFE1
:103E5000002001F093FF002001F090FF002001F00E
:103E600099FFAA2001F08AFFCF2001F093FF0020E4
:103E700001F084FF002001F081FF002001F07EFFAF
:103E8000002001F07BFF002001F078FF002001F00E
:103E900075FF002001F072FF002001F06FFF00208D
:103EA00001F06CFF002001F069FF002001F066FFC7
:103EB000002001F063FF002001F060FF002001F00E
:103EC0005DFF002001F05AFF002001F057FF0020A5
:103ED00001F054FFF02001F05DFF002001F04EFFE3
:103EE000502001F04BFF002001F048FF002001F0BE
:103EF00045FF002001F042FFF32001F04BFF0020BE
:103F000001F03CFFF92001F045FF062001F036FFEB
:103F1000102001F033FF292001F030FF002001F0D4
:103F20002DFF3A2001F036FF552001F027FF112028
:103F300001F030FF6420FEF7BFFB292001F02AFFCB
:103F4000352001F027FF002001F018FF512001F07B
:103F500021FFFF2001F012FF532001F01BFF2C2056
:103F600001F00CFF552001F015FF822001F006FF43
:103F7000BDE810402C2001F00DBF2DE9F05F4FF49B
:103F800070435521184601F01BFF4FF20104AA218E
:103F9000204601F015FF651C5221284601F010FF54
:103FA000A61C0821304601F00BFFE71C0121384612
:103FB00001F006FF0D214FF4304001F001FF0D210B
:103FC0004BF2010001F0FCFE0D214BF2020001F06A
:103FD000F7FE4FF436483421404601F0F1FE34211B
:103FE0004BF2016001F0ECFE34214BF2026001F073
:103FF000E7FE4FF431490D21484601F0E1FE4BF256
:10400000011A0D21504601F0DBFE0D214BF202108A
:1040100001F0D6FE4FF4374B3421584601F0D0FE64
:1040200034214BF2017001F0CBFE34214BF20270CF
:1040300001F0C6FE00214FF4324001F0C1FE002124
:104040004BF2012001F0BCFE00214BF2022001F0F6
:10405000B7FE24214FF4384001F0B2FE24214BF684
:10406000010001F0ADFE24214BF6020001F0A8FE94
:1040700001214FF43F4001F0A3FE0F214FF43340E4
:1040800001F09EFE0F214BF2013001F099FE0F214D
:104090004BF2023001F094FE34214FF4394001F02C
:1040A0008FFE34214BF6011001F08AFE34214BF6CD
:1040B000021001F085FE08214FF4354001F080FE2A
:1040C00008214BF2015001F07BFE08214BF2025017
:1040D00001F076FE03214FF4424001F071FE2421ED
:1040E0004FF43A4001F06CFE24214BF6012001F020
:1040F00067FE24214BF6022001F062FE00214FF4FE
:104100003C4001F05DFE78214BF6014001F058FE85
:1041100000214BF6024001F053FE00214FF43D40D8
:1041200001F04EFE78214BF6015001F049FE0021CE
:104130004BF6025001F044FE00214FF43E4001F0E6
:104140003FFE64214BF6016001F03AFE00214FF47E
:10415000514001F035FE33214DF2011001F030FEE7
:1041600000214DF2021001F02BFE34214DF203101C
:1041700001F026FE00214DF2041001F021FE3A214B
:104180004DF2051001F01CFE00214DF2061001F069
:1041900017FE4A214DF2071001F012FE00214DF2E8
:1041A000081001F00DFE5C214DF2091001F008FE2F
:1041B00000214DF20A1001F003FE81214DF20B1097
:1041C00001F0FEFD00214DF20C1001F0F9FDA621D9
:1041D0004DF20D1001F0F4FD00214DF20E1001F032
:1041E000EFFDE5214DF20F1001F0EAFD01214DF246
:1041F000101001F0E5FD13214DF2111001F0E0FD6A
:1042000001214DF2121001F0DBFD54214DF213108B
:1042100001F0D6FD01214DF2141001F0D1FD8221F3
:104220004DF2151001F0CCFD01214DF2161001F0F8
:10423000C7FDCA214DF2171001F0C2FD02214DF257
:10424000181001F0BDFD00214DF2191001F0B8FD6C
:1042500002214DF21A1001F0B3FD01214DF21B10A5
:1042600001F0AEFD02214DF21C1001F0A9FD342138
:104270004DF21D1001F0A4FD02214DF21E1001F0BF
:104280009FFD67214DF21F1001F09AFD02214DF2B2
:10429000201001F095FD84214DF2211001F090FDD8
:1042A00002214DF2221001F08BFDA4214DF22310CA
:1042B00001F086FD02214DF2241001F081FDB721AD
:1042C0004DF2251001F07CFD02214DF2261001F087
:1042D00077FDCF214DF2271001F072FD02214DF242
:1042E000281001F06DFDDE214DF2291001F068FD6E
:1042F00002214DF22A1001F063FDF2214DF22B1044
:1043000001F05EFD02214DF22C1001F059FDFE215D
:104310004DF22D1001F054FD03214DF22E1001F04D
:104320004FFD10214DF22F1001F04AFD03214DF2F7
:10433000301001F045FD33214DF2311001F040FD08
:1043400003214DF2321001F03BFD6D214DF233108F
:1043500001F036FD00214FF4524001F031FD3321D0
:104360004DF2012001F02CFD00214DF2022001F060
:1043700027FD34214DF2032001F022FD00214DF2F2
:10438000042001F01DFD3A214DF2052001F018FD39
:1043900000214DF2062001F013FD4A214DF20720C5
:1043A00001F00EFD00214DF2082001F009FD5C2115
:1043B0004DF2092001F004FD00214DF20A2001F028
:1043C000FFFC81214DF20B2001F0FAFC00214DF29F
:1043D0000C2001F0F5FCA6214DF20D2001F0F0FCBF
:1043E00000214DF20E2001F0EBFCE5214DF20F20F3
:1043F00001F0E6FC01214DF2102001F0E1FC132157
:104400004DF2112001F0DCFC01214DF2122001F0EF
:10441000D7FC54214DF2132001F0D2FC01214DF2C2
:10442000142001F0CDFC82214DF2152001F0C8FCD2
:1044300001214DF2162001F0C3FCCA214DF21720D4
:1044400001F0BEFC02214DF2182001F0B9FC002160
:104450004DF2192001F0B4FC02214DF21A2001F0B6
:10446000AFFC01214DF21B2001F0AAFC02214DF20C
:104470001C2001F0A5FC34214DF21D2001F0A0FC10
:1044800002214DF21E2001F09BFC67214DF21F20FE
:1044900001F096FC02214DF2202001F091FC8421D4
:1044A0004DF2212001F08CFC02214DF2222001F07E
:1044B00087FCA4214DF2232001F082FC02214DF261
:1044C000242001F07DFCB7214DF2252001F078FC7D
:1044D00002214DF2262001F073FCCF214DF227205E
:1044E00001F06EFC02214DF2282001F069FCDE2172
:1044F0004DF2292001F064FC02214DF22A2001F046
:104500005FFCF2214DF22B2001F05AFC02214DF20A
:104510002C2001F055FCFE214DF22D2001F050FC25
:1045200003214DF22E2001F04BFC10214DF22F20E3
:1045300001F046FC03214DF2302001F041FC332113
:104540004DF2312001F03CFC03214DF2322001F00C
:1045500037FC6D214DF2332001F032FC00214FF485
:10456000534001F02DFC33214DF2013001F028FCC5
:1045700000214DF2023001F023FC34214DF20330D2
:1045800001F01EFC00214DF2043001F019FC3A212B
:104590004DF2053001F014FC00214DF2063001F01F
:1045A0000FFC4A214DF2073001F00AFC00214DF2C8
:1045B000083001F005FC5C214DF2093001F000FCEF
:1045C00000214DF20A3001F0FBFB81214DF20B304E
:1045D00001F0F6FB00214DF20C3001F0F1FBA621B9
:1045E0004DF20D3001F0ECFB00214DF20E3001F0E8
:1045F000E7FBE5214DF20F3001F0E2FB01214DF226
:10460000103001F0DDFB13214DF2113001F0D8FB29
:1046100001214DF2123001F0D3FB54214DF2133041
:1046200001F0CEFB01214DF2143001F0C9FB8221D3
:104630004DF2153001F0C4FB01214DF2163001F0AE
:10464000BFFBCA214DF2173001F0BAFB02214DF237
:10465000183001F0B5FB00214DF2193001F0B0FB2C
:1046600002214DF21A3001F0ABFB01214DF21B305B
:1046700001F0A6FB02214DF21C3001F0A1FB342118
:104680004DF21D3001F09CFB02214DF21E3001F075
:1046900097FB67214DF21F3001F092FB02214DF292
:1046A000203001F08DFB84214DF2213001F088FB98
:1046B00002214DF2223001F083FBA4214DF2233080
:1046C00001F07EFB02214DF2243001F079FBB7218D
:1046D0004DF2253001F074FB02214DF2263001F03D
:1046E0006FFBCF214DF2273001F06AFB02214DF222
:1046F000283001F065FBDE214DF2293001F060FB2E
:1047000002214DF22A3001F05BFBF2214DF22B30F9
:1047100001F056FB02214DF22C3001F051FBFE213D
:104720004DF22D3001F04CFB03214DF22E3001F003
:1047300047FB10214DF22F3001F042FB03214DF2D7
:10474000303001F03DFB33214DF2313001F038FBC8
:1047500003214DF2323001F033FB6D214DF2333045
:1047600001F02EFB00214FF4544001F029FB3321CE
:104770004DF2014001F024FB00214DF2024001F016
:104780001FFB34214DF2034001F01AFB00214DF2D2
:10479000044001F015FB3A214DF2054001F010FBF9
:1047A00000214DF2064001F00BFB4A214DF207407B
:1047B00001F006FB00214DF2084001F001FB5C21F5
:1047C0004DF2094001F0FCFA00214DF20A4001F0DF
:1047D000F7FA81214DF20B4001F0F2FA00214DF27F
:1047E0000C4001F0EDFAA6214DF20D4001F0E8FA7F
:1047F00000214DF20E4001F0E3FAE5214DF20F40A9
:1048000001F0DEFA01214DF2104001F0D9FA132136
:104810004DF2114001F0D4FA01214DF2124001F0A5
:10482000CFFA54214DF2134001F0CAFA01214DF2A2
:10483000144001F0C5FA82214DF2154001F0C0FA92
:1048400001214DF2164001F0BBFACA214DF217408A
:1048500001F0B6FA02214DF2184001F0B1FA002140
:104860004DF2194001F0ACFA02214DF21A4001F06C
:10487000A7FA01214DF21B4001F0A2FA02214DF2EC
:104880001C4001F09DFA34214DF21D4001F098FAD0
:1048900002214DF21E4001F093FA67214DF21F40B4
:1048A00001F08EFA02214DF2204001F089FA8421B4
:1048B0004DF2214001F084FA02214DF2224001F034
:1048C0007FFAA4214DF2234001F07AFA02214DF241
:1048D000244001F075FAB7214DF2254001F070FA3D
:1048E00002214DF2264001F06BFACF214DF2274014
:1048F00001F066FA02214DF2284001F061FADE2152
:104900004DF2294001F05CFA02214DF22A4001F0FB
:1049100057FAF2214DF22B4001F052FA02214DF2EA
:104920002C4001F04DFAFE214DF22D4001F048FAE5
:1049300003214DF22E4001F043FA10214DF22F4099
:1049400001F03EFA03214DF2304001F039FA3321F3
:104950004DF2314001F034FA03214DF2324001F0C2
:104960002FFA6D214DF2334001F02AFA00214FF465
:10497000554001F025FA33214DF2015001F020FAA3
:1049800000214DF2025001F01BFA34214DF2035088
:1049900001F016FA00214DF2045001F011FA3A210B
:1049A0004DF2055001F00CFA00214DF2065001F0D5
:1049B00007FA4A214DF2075001F002FA00214DF2A8
:1049C000085001F0FDF95C214DF2095001F0F8F9B1
:1049D00000214DF20A5001F0F3F981214DF20B5004
:1049E00001F0EEF900214DF20C5001F0E9F9A62199
:1049F0004DF20D5001F0E4F900214DF20E5001F09E
:104A0000DFF9E5214DF20F5001F0DAF901214DF205
:104A1000105001F0D5F913214DF2115001F0D0F9E9
:104A200001214DF2125001F0CBF954214DF21350F7
:104A300001F0C6F901214DF2145001F0C1F98221B3
:104A40004DF2155001F0BCF901214DF2165001F064
:104A5000B7F9CA214DF2175001F0B2F902214DF217
:104A6000185001F0ADF900214DF2195001F0A8F9EC
:104A700002214DF21A5001F0A3F901214DF21B5011
:104A800001F09EF902214DF21C5001F099F93421F8
:104A90004DF21D5001F094F902214DF21E5001F02B
:104AA0008FF967214DF21F5001F08AF902214DF272
:104AB000205001F085F984214DF2215001F080F958
:104AC00002214DF2225001F07BF9A4214DF2235036
:104AD00001F076F902214DF2245001F071F9B7216D
:104AE0004DF2255001F06CF902214DF2265001F0F3
:104AF00067F9CF214DF2275001F062F902214DF202
:104B0000285001F05DF9DE214DF2295001F058F9ED
:104B100002214DF22A5001F053F9F2214DF22B50AF
:104B200001F04EF902214DF22C5001F049F9FE211D
:104B30004DF22D5001F044F903214DF22E5001F0B9
:104B40003FF910214DF22F5001F03AF903214DF2B7
:104B5000305001F035F933214DF2315001F030F988
:104B600003214DF2325001F02BF96D214DF23350FB
:104B700001F026F900214FF4564001F021F93321CC
:104B80004DF2016001F01CF900214DF2026001F0CC
:104B900017F934214DF2036001F012F900214DF2B2
:104BA000046001F00DF93A214DF2056001F008F9B9
:104BB00000214DF2066001F003F94A214DF2076031
:104BC00001F0FEF800214DF2086001F0F9F85C21D7
:104BD0004DF2096001F0F4F800214DF20A6001F095
:104BE000EFF881214DF20B6001F0EAF800214DF25F
:104BF0000C6001F0E5F8A6214DF20D6001F0E0F83F
:104C000000214DF20E6001F0DBF8E5214DF20F605E
:104C100001F0D6F801214DF2106001F0D1F8132116
:104C20004DF2116001F0CCF801214DF2126001F05B
:104C3000C7F854214DF2136001F0C2F801214DF282
:104C4000146001F0BDF882214DF2156001F0B8F852
:104C500001214DF2166001F0B3F8CA214DF2176040
:104C600001F0AEF802214DF2186001F0A9F8002120
:104C70004DF2196001F0A4F802214DF21A6001F022
:104C80009FF801214DF21B6001F09AF802214DF2CC
:104C90001C6001F095F834214DF21D6001F090F890
:104CA00002214DF21E6001F08BF867214DF21F606A
:104CB00001F086F802214DF2206001F081F8842194
:104CC0004DF2216001F07CF802214DF2226001F0EA
:104CD00077F8A4214DF2236001F072F802214DF221
:104CE000246001F06DF8B7214DF2256001F068F8FD
:104CF00002214DF2266001F063F8CF214DF22760CA
:104D000001F05EF802214DF2286001F059F8DE2131
:104D10004DF2296001F054F802214DF22A6001F0B1
:104D20004FF8F2214DF22B6001F04AF802214DF2CA
:104D30002C6001F045F8FE214DF22D6001F040F8A5
:104D400003214DF22E6001F03BF810214DF22F604F
:104D500001F036F803214DF2306001F031F83321D3
:104D60004DF2316001F02CF803214DF2326001F078
:104D700027F86D214DF2336001F022F855211846D5
:104D800001F01EF8AA21204601F01AF85221284607
:104D900001F016F80821304601F012F800213846DB
:104DA00001F00EF8CC21484601F00AF800215046E7
:104DB00001F006F80521404601F002F8702158463E
:104DC00000F0FEFF70214BF2017000F0F9FF0121AD
:104DD0004FF4384000F0F4FF03214BF6010000F0DF
:104DE000EFFF03214BF6020000F0EAFF03214BF630
:104DF000030000F0E5FF02214FF43C4000F0E0FF2B
:104E000000214BF6014000F0DBFF00214BF6024091
:104E100000F0D6FFD0214FF4494000F0D1FF02212D
:104E20004CF6011000F0CCFF50214CF6021000F0BF
:104E3000C7FF50214CF6031000F0C2FF50214CF682
:104E4000041000F0BDFF00214FF4545000F0B8FFF3
:104E500055214FF4685000F0B3FF4FF4885000F034
:104E600099FF7820FDF72EFCBDE8F05F4FF4245049
:104E700000F090BF10B5E22000F08CFF1D2000F084
:104E80007DFF022000F07AFF042000F077FF64200D
:104E9000FDF718FCE02000F07DFF012000F06EFF20
:104EA0000A20FDF709FCE02000F074FF032000F069
:104EB00065FF0C20FDF700FC012000F06BFF0A20CD
:104EC000FDF7FAFBE62000F065FF2F2000F056FF0B
:104ED000FF2000F053FFFF2000F050FFB02000F053
:104EE00059FF202000F04AFF002000F047FF032078
:104EF00000F044FF40F21F3000F040FF012000F0BE
:104F00003DFF40F2DF1000F039FF002000F036FFD7
:104F1000B42000F03FFF042000F030FF40F21F40BB
:104F200000F02CFF002000F029FF2E2000F026FFCB
:104F3000002000F023FF002000F020FF002000F000
:104F40001DFF002000F01AFFB62000F023FF022012
:104F500000F014FF4FF4037000F010FF002000F089
:104F60000DFF172000F00AFF152000F007FF0020BA
:104F700000F004FF002000F001FFF02000F00AFF25
:104F8000032000F0FBFE292000F004FFD02000F0F9
:104F900001FF002000F0F2FEBE2000F0FBFE052025
:104FA00000F0ECFEFE2000F0E9FE012000F0E6FE3D
:104FB000002000F0E3FE002000F0E0FE002000F002
:104FC000DDFEB82000F0E6FE032000F0D7FE012051
:104FD00000F0D4FEBA2000F0DDFEBDE81040012054
:104FE00000F0CCBE10B5112000F0D4FE7820FDF703
:104FF00063FB362000F0CEFE002000F0BFFE3A201A
:1050000000F0C8FE052000F0B9FEB22000F0C2FE9C
:105010000C2000F0B3FE0C2000F0B0FE002000F0E9
:10502000ADFE332000F0AAFE332000F0A7FEB7202B
:1050300000F0B0FE352000F0A1FEBB2000F0AAFE7B
:10504000322000F09BFEC02000F0A4FE0C2000F0F7
:1050500095FEC22000F09EFE012000F08FFEC320CE
:1050600000F098FE102000F089FEC42000F092FEAF
:10507000202000F083FEC62000F08CFE0F2000F000
:105080007DFED02000F086FEA42000F077FEA12057
:1050900000F074FEE02000F07DFED02000F06EFEF7
:1050A000002000F06BFE022000F068FE072000F0F8
:1050B00065FE0A2000F062FE282000F05FFE32202C
:1050C00000F05CFE442000F059FE422000F056FE45
:1050D000062000F053FE0E2000F050FE122000F0DB
:1050E0004DFE142000F04AFE172000F047FEE1209C
:1050F00000F050FED02000F041FE002000F03EFE07
:10510000022000F03BFE072000F038FE0A2000F0ED
:1051100035FE282000F032FE312000F02FFE542012
:1051200000F02CFE472000F029FE0E2000F026FEA5
:105130001C2000F023FE172000F020FE1B2000F0B2
:105140001DFE1E2000F01AFE2A2000F023FE002083
:1051500000F014FE002000F011FE002000F00EFE12
:10516000EF2000F00BFE2B2000F014FE002000F0DA
:1051700005FE002000F002FE012000F0FFFD3F20B0
:1051800000F0FCFDBDE81040292000F003BE10B582
:10519000112000F0FFFD7820FDF78EFA362000F098
:1051A000F9FD482000F0EAFD3A2000F0F3FD55201B
:1051B00000F0E4FDF02000F0EDFDC32000F0DEFD86
:1051C000F02000F0E7FD962000F0D8FDB42000F0BC
:1051D000E1FD012000F0D2FDB62000F0DBFD0A2049
:1051E00000F0CCFDA22000F0C9FDB72000F0D2FDF8
:1051F000C62000F0C3FDB92000F0CCFD022000F075
:10520000BDFDE02000F0BAFDC02000F0C3FD80200D
:1052100000F0B4FD162000F0B1FDC12000F0BAFD91
:10522000192000F0ABFDC22000F0B4FDA72000F073
:10523000A5FDC52000F0AEFD162000F09FFDE82082
:1052400000F0A8FD402000F099FD8A2000F096FDB6
:10525000002000F093FD002000F090FD292000F0D8
:105260008DFD192000F08AFDA52000F087FD332078
:1052700000F084FDE02000F08DFDF02000F07EFDC8
:10528000072000F07BFD0D2000F078FD042000F0E9
:1052900075FD052000F072FD142000F06FFD362032
:1052A00000F06CFD542000F069FD4C2000F066FD1C
:1052B000382000F063FD132000F060FD142000F0A2
:1052C0005DFD2E2000F05AFD342000F057FDE12056
:1052D00000F060FDF02000F051FD102000F04EFDC8
:1052E000142000F04BFD0E2000F048FD0C2000F0D3
:1052F00045FD082000F042FD352000F03FFD442030
:1053000000F03CFD4C2000F039FD262000F036FD79
:10531000102000F033FD122000F030FD2C2000F0B2
:105320002DFD322000F02AFDF02000F033FD3C205E
:1053300000F024FDF02000F02DFD692000F01EFD9E
:105340007820FDF7B9F9212000F024FDBDE81040D8
:10535000292000F01FBD00002DE9F0439846079B6F
:1053600081460C46A2EB0900401C86B29FB20A4D52
:105370000EE02146484600F027FB00F017FD002212
:1053800002E02F80521C92B2B242FAD3641CA4B243
:105390004445EED9BDE8F0830008006C2DE9F04FDC
:1053A00095B00025E848016841F0400101600168BE
:1053B00001F040010191016841F0080101600168BC
:1053C00001F008010191016841F0080101600168E4
:1053D00001F008010191016841F04001016001689C
:1053E00001F040010191016841F080010160006815
:1053F00000F0800001904FF4805010900220119036
:105400000124129413900C20149010A9CF48FBF79C
:10541000DDFB2020109010A9CD48FBF7D7FB102012
:10542000109010A9CA48FBF7D1FB109410A9C748E7
:10543000FBF7CCFB60021090119410A9C548FBF754
:10544000C5FBC54C4FF020402060C448606006207A
:10545000A060E56010206061A561E5616562000201
:10546000A062E562800020636563A5630F20099058
:105470000A953C200B900F9509200290039504900B
:10548000089502AA09A92046FCF70AF83220FDF780
:1054900013F9D32000F07EFC00F074F904F1500BF6
:1054A000ABF8040000F06EF95946888000F06AF904
:1054B0004FF6FF7101EA00205946888000F062F93A
:1054C0005946898808435946888049F2413647F24F
:1054D000897545F2103747F2967845F2105949F62A
:1054E000060AB0427DD0042000F054FC00F04AF9D6
:1054F000ABF8040000F046F9ABF8040000F042F904
:105500004FF6FF7101EA0020ABF8040000F03AF911
:10551000BBF804100843ABF80400A0F5054152396C
:1055200001D1ABF80450BBF80400A84259D0D420F4
:1055300000F030FC00F026F9ABF8040000F022F98E
:10554000ABF8040000F01EF94FF6FF7101EA0020ED
:10555000ABF8040000F016F9BBF804100843ABF8F0
:105560000400B8423DD0D32000F014FC00F00AF94A
:10557000ABF8040000F006F9ABF8040000F002F903
:105580004FF6FF7101EA0020ABF8040000F0FAF8D2
:10559000BBF804100843ABF80400404572D0552115
:1055A0004FF4704000F00CFCAA214FF2010000F013
:1055B00007FC52214FF2020000F002FC08214FF2DA
:1055C000030000F0FDFB01214FF2040000F0F8FBA6
:1055D0004FF4454000F0DEFB00F0D4F84FF6FF71C9
:1055E00000E04FE001EA0020ABF804004CF201506B
:1055F00000F0D0FB00F0C6F8BBF804100843ABF88D
:1056000004000520FDF758F8BBF80400484539D0E0
:10561000D32000F0BFFB00F0B5F8ABF8040000F0B9
:10562000B1F8ABF8040000F0ADF84FF6FF7101EAF5
:105630000020ABF8040000F0A5F8BBF80410084304
:10564000ABF8040050451DD0A12000F0A3FB00F0F2
:1056500099F8ABF8040000F095F84FF6FF7101EAF5
:105660000020ABF8040000F08DF8BBF804100843EC
:10567000ABF80400A0F5AE41613903D141F66310E7
:10568000ABF80400BBF8041035A0FAF79BFEBBF89A
:105690000400A84202D1FFF7A5FC21E0B04202D1EC
:1056A000FDF739FA1CE0B84202D1FDF7ECFC17E037
:1056B000404502D1FFF76BFD12E0484502D1FEF7ED
:1056C0005CFC0DE0504502D1FDF73CFB08E0A0F585
:1056D000C851633904D1FFF7CDFB642000F026FBED
:1056E000BBF80400A84225D0B04223D0A0F5C85191
:1056F00063391FD0B84205D0404503D0484501D09A
:10570000504508D1022002900490D4E9010202A978
:10571000236BFBF795F90020FDF7A0F80122510259
:105720000C48FBF74AFB4FF6FF70FDF77FF815B00A
:10573000BDE8F08F032002900490D4E9010202A991
:10574000236BFBF77DF9E6E7303802400018024092
:10575000000C0240001C0240C4030020040100A011
:105760004C43442049443A25780D0A00401E411C10
:10577000FCD170470346012000E05843491EC9B2DE
:10578000FBD2704708B50220FFF7F0FF02480088FF
:105790000090BDF8000008BD0008006C70B51C4DFD
:1057A0002A88824202D96A888A4201D8002070BDC4
:1057B00000F00AF9A888A0F5AA41103920D02E20BF
:1057C00000F0E8FAFFF7DEFFA988A1F5C852633AB6
:1057D000EDD0FFF7D7FF0446A888A0F5EE41963933
:1057E00013D0FFF7CFFFE1B24FF6FF7202EA0121BB
:1057F00024EA6212890A42EA411141EAD02070BDCE
:105800004FF4385000F0C6FADCE7204670BD0000C7
:105810001404002070B500236A4C41F6631621463B
:10582000A2798988012A01D1B14202D1C2B9B1421B
:1058300016D1082814D2DFE800F00406080A0C0E7E
:10584000101206200CE007200AE0042008E00520E2
:1058500006E0012004E0002002E0032000E0022036
:10586000082812D2DFE800F0110406080A0C0E1016
:1058700080230AE0402308E0C02306E0202304E060
:10588000602302E0A02300E0E023362045F210551B
:10589000A94200D10002A1F51342413A07D0A1F577
:1058A000EE42893A03D0A1F5EE42963A01D143F097
:1058B0000803194600F084FAA288B2420ED0980676
:1058C00006D520886188884208D22180608005E062
:1058D00021886088814201D920806180AA4247D115
:1058E000608900F057FA002000F048FA6089401CF7
:1058F00080B200F04FFA002000F040FA6089801C6E
:1059000080B200F047FA2088401EC0F30F2000F05C
:1059100035FA6089C01C80B200F03CFA2078401E45
:10592000C0B200F02BFAA08900F034FA002000F099
:1059300025FAA089401C80B200F02CFA002000F06B
:105940001DFAA089801C80B200F024FA6088401EF5
:10595000C0F30F2000F012FAA089C01C80B200F042
:1059600019FAA078BDE87040401EC0B200F006BA37
:10597000608900F00FFA002000F000FA002000F02B
:10598000FDF92088401EC0F30F2000F0F7F92078C1
:10599000401EC0B200F0F2F9A08900F0FBF900202F
:1059A00000F0ECF9002000F0E9F96088401EC0F337
:1059B0000F2000F0E3F9A078BDE87040401EC0B2AF
:1059C00000F0DCB914040020F0B502460C463E4D50
:1059D000260A2846A988170A4089A1F5C853633BBF
:1059E00016D0A1F5AA43103B50D000F0D3F93846A9
:1059F00000F0C4F9D0B200F0C1F9A88900F0CAF9EA
:105A0000304600F0BBF9E0B2BDE8F04000F0B6B9B6
:105A1000A97941B300F0BEF9384600F0AFF9D0B231
:105A200000F0ACF92888401EC0F30F2000F0A6F962
:105A30002878401EC0B200F0A1F9A88900F0AAF9A8
:105A4000304600F09BF9E0B200F098F96888401EFB
:105A5000C0F30F2000F092F9A878BDE8F040401E96
:105A6000C0B200F08BB92988891A491E8AB200F0A9
:105A700091F9002000F082F9002000F07FF9100A6F
:105A800000F07CF9D0B200F079F9D6E700F082F9A5
:105A9000384600F073F96889401C80B200F07AF94A
:105AA000D0B200F06BF9A88900F074F9304600F02C
:105AB00065F9A889401C80B200F06CF9E0B2BDE83D
:105AC000F04000F05BB90000140400202DE9F84F0D
:105AD00081460C469846A3465FEA487001D00120F3
